:020000020000FC
:0200000055C0E9
:0800040090D01895A5D01895C5
:040010007CD01895F3
:1000AC000AE00EBF0FEF0DBF0FEF04B90FEF05B94C
:1000BC0000E00AB90FE00BB90AE8009369000BE005
:1000CC000DBB90E001EA0093800009E000938100F1
:1000DC009093880090938A0000E988278FE0082B82
:1000EC0005B97894FFCF08959093880090938A0077
:1000FC00782F7F7025B1207F272B25B908950F937A
:10010C001F930FB70F938FE090E00F910FBF1F91CC
:10011C000F91EADF0BE00CBB08950F931F930FB701
:10012C000F9301E1900F08F49FEF01E001E0801BB9
:10013C000AF488271AE021D00F910FBF1F910F915D
:10014C00D3DF0BE00CBB08950F931F930FB70F93E6
:10015C0001E1901B08F4992701E0800F8F3008F41F
:10016C0001C08FE001E01AE008D00F910FBF1F9182
:10017C000F91BADF0BE00CBB08951F932F933F93A5
:10018C0030EE2DEE2A95F1F73A95D9F71A95C1F77D
:08019C003F912F911F9108957E
:00000001FF
